{
  "abi": [
    {
      "inputs": [],
      "stateMutability": "nonpayable",
      "type": "constructor"
    },
    {
      "anonymous": false,
      "inputs": [
        {
          "indexed": true,
          "internalType": "address",
          "name": "owner",
          "type": "address"
        },
        {
          "indexed": true,
          "internalType": "address",
          "name": "spender",
          "type": "address"
        },
        {
          "indexed": false,
          "internalType": "uint256",
          "name": "value",
          "type": "uint256"
        }
      ],
      "name": "Approval",
      "type": "event"
    },
    {
      "anonymous": false,
      "inputs": [
        {
          "indexed": true,
          "internalType": "address",
          "name": "from",
          "type": "address"
        },
        {
          "indexed": true,
          "internalType": "address",
          "name": "to",
          "type": "address"
        },
        {
          "indexed": false,
          "internalType": "uint256",
          "name": "value",
          "type": "uint256"
        }
      ],
      "name": "Transfer",
      "type": "event"
    },
    {
      "inputs": [
        {
          "internalType": "address",
          "name": "owner",
          "type": "address"
        },
        {
          "internalType": "address",
          "name": "spender",
          "type": "address"
        }
      ],
      "name": "allowance",
      "outputs": [
        {
          "internalType": "uint256",
          "name": "",
          "type": "uint256"
        }
      ],
      "stateMutability": "view",
      "type": "function"
    },
    {
      "inputs": [
        {
          "internalType": "address",
          "name": "spender",
          "type": "address"
        },
        {
          "internalType": "uint256",
          "name": "amount",
          "type": "uint256"
        }
      ],
      "name": "approve",
      "outputs": [
        {
          "internalType": "bool",
          "name": "",
          "type": "bool"
        }
      ],
      "stateMutability": "nonpayable",
      "type": "function"
    },
    {
      "inputs": [],
      "name": "availableSupply",
      "outputs": [
        {
          "internalType": "uint256",
          "name": "",
          "type": "uint256"
        }
      ],
      "stateMutability": "view",
      "type": "function"
    },
    {
      "inputs": [
        {
          "internalType": "address",
          "name": "account",
          "type": "address"
        }
      ],
      "name": "balanceOf",
      "outputs": [
        {
          "internalType": "uint256",
          "name": "",
          "type": "uint256"
        }
      ],
      "stateMutability": "view",
      "type": "function"
    },
    {
      "inputs": [
        {
          "internalType": "uint256",
          "name": "amount",
          "type": "uint256"
        }
      ],
      "name": "burn",
      "outputs": [
        {
          "internalType": "bool",
          "name": "",
          "type": "bool"
        }
      ],
      "stateMutability": "nonpayable",
      "type": "function"
    },
    {
      "inputs": [
        {
          "internalType": "uint256",
          "name": "amount",
          "type": "uint256"
        }
      ],
      "name": "deal",
      "outputs": [
        {
          "internalType": "bool",
          "name": "",
          "type": "bool"
        }
      ],
      "stateMutability": "nonpayable",
      "type": "function"
    },
    {
      "inputs": [],
      "name": "decimals",
      "outputs": [
        {
          "internalType": "uint8",
          "name": "",
          "type": "uint8"
        }
      ],
      "stateMutability": "view",
      "type": "function"
    },
    {
      "inputs": [
        {
          "internalType": "address",
          "name": "to",
          "type": "address"
        },
        {
          "internalType": "uint256",
          "name": "amount",
          "type": "uint256"
        }
      ],
      "name": "fund",
      "outputs": [
        {
          "internalType": "bool",
          "name": "",
          "type": "bool"
        }
      ],
      "stateMutability": "nonpayable",
      "type": "function"
    },
    {
      "inputs": [
        {
          "internalType": "uint256",
          "name": "amount",
          "type": "uint256"
        }
      ],
      "name": "mint",
      "outputs": [
        {
          "internalType": "bool",
          "name": "",
          "type": "bool"
        }
      ],
      "stateMutability": "nonpayable",
      "type": "function"
    },
    {
      "inputs": [],
      "name": "name",
      "outputs": [
        {
          "internalType": "string",
          "name": "",
          "type": "string"
        }
      ],
      "stateMutability": "view",
      "type": "function"
    },
    {
      "inputs": [],
      "name": "symbol",
      "outputs": [
        {
          "internalType": "string",
          "name": "",
          "type": "string"
        }
      ],
      "stateMutability": "view",
      "type": "function"
    },
    {
      "inputs": [],
      "name": "timeToClaim",
      "outputs": [
        {
          "internalType": "uint256",
          "name": "",
          "type": "uint256"
        }
      ],
      "stateMutability": "view",
      "type": "function"
    },
    {
      "inputs": [],
      "name": "totalSupply",
      "outputs": [
        {
          "internalType": "uint256",
          "name": "",
          "type": "uint256"
        }
      ],
      "stateMutability": "view",
      "type": "function"
    },
    {
      "inputs": [
        {
          "internalType": "address",
          "name": "to",
          "type": "address"
        },
        {
          "internalType": "uint256",
          "name": "amount",
          "type": "uint256"
        }
      ],
      "name": "transfer",
      "outputs": [
        {
          "internalType": "bool",
          "name": "",
          "type": "bool"
        }
      ],
      "stateMutability": "nonpayable",
      "type": "function"
    },
    {
      "inputs": [
        {
          "internalType": "address",
          "name": "from",
          "type": "address"
        },
        {
          "internalType": "address",
          "name": "to",
          "type": "address"
        },
        {
          "internalType": "uint256",
          "name": "amount",
          "type": "uint256"
        }
      ],
      "name": "transferFrom",
      "outputs": [
        {
          "internalType": "bool",
          "name": "",
          "type": "bool"
        }
      ],
      "stateMutability": "nonpayable",
      "type": "function"
    }
  ],
  "bytecode": {
    "object": "0x60806040523480156200001157600080fd5b5060408051808201909152601b81527f4f70656e204176656e75657320546869726477656220546f6b656e0000000000602082015260009062000055908262000186565b5060408051808201909152600481526313d0551560e21b602082015260019062000080908262000186565b506002805460ff191660039081179091556200009e90600a62000367565b620000ad9062b71f436200037f565b60038190556004819055600580546001600160a01b0319163390811790915560009081526006602052604090205562000399565b634e487b7160e01b600052604160045260246000fd5b600181811c908216806200010c57607f821691505b6020821081036200012d57634e487b7160e01b600052602260045260246000fd5b50919050565b601f8211156200018157600081815260208120601f850160051c810160208610156200015c5750805b601f850160051c820191505b818110156200017d5782815560010162000168565b5050505b505050565b81516001600160401b03811115620001a257620001a2620000e1565b620001ba81620001b38454620000f7565b8462000133565b602080601f831160018114620001f25760008415620001d95750858301515b600019600386901b1c1916600185901b1785556200017d565b600085815260208120601f198616915b82811015620002235788860151825594840194600190910190840162000202565b5085821015620002425787850151600019600388901b60f8161c191681555b5050505050600190811b01905550565b634e487b7160e01b600052601160045260246000fd5b600181815b80851115620002a95781600019048211156200028d576200028d62000252565b808516156200029b57918102915b93841c93908002906200026d565b509250929050565b600082620002c25750600162000361565b81620002d15750600062000361565b8160018114620002ea5760028114620002f55762000315565b600191505062000361565b60ff84111562000309576200030962000252565b50506001821b62000361565b5060208310610133831016604e8410600b84101617156200033a575081810a62000361565b62000346838362000268565b80600019048211156200035d576200035d62000252565b0290505b92915050565b60006200037860ff841683620002b1565b9392505050565b808202811582820484141762000361576200036162000252565b610d1f80620003a96000396000f3fe608060405234801561001057600080fd5b50600436106100f55760003560e01c80637b1837de11610097578063a9059cbb11610066578063a9059cbb146101e7578063c959c42b146101fa578063d7c31cd21461020d578063dd62ed3e1461021557600080fd5b80637b1837de146101b15780637ecc2b56146101c457806395d89b41146101cc578063a0712d68146101d457600080fd5b806323b872dd116100d357806323b872dd1461014d578063313ce5671461016057806342966c681461017557806370a082311461018857600080fd5b806306fdde03146100fa578063095ea7b31461011857806318160ddd1461013b575b600080fd5b61010261024e565b60405161010f9190610a98565b60405180910390f35b61012b610126366004610afd565b6102e0565b604051901515815260200161010f565b6003545b60405190815260200161010f565b61012b61015b366004610b27565b61034d565b60025460405160ff909116815260200161010f565b61012b610183366004610b63565b610454565b61013f610196366004610b7c565b6001600160a01b031660009081526006602052604090205490565b61012b6101bf366004610afd565b610553565b60045461013f565b610102610664565b61012b6101e2366004610b63565b610673565b61012b6101f5366004610afd565b6106fa565b61012b610208366004610b63565b610707565b61013f6107ed565b61013f610223366004610b9e565b6001600160a01b03918216600090815260076020908152604080832093909416825291909152205490565b60606000805461025d90610bd1565b80601f016020809104026020016040519081016040528092919081815260200182805461028990610bd1565b80156102d65780601f106102ab576101008083540402835291602001916102d6565b820191906000526020600020905b8154815290600101906020018083116102b957829003601f168201915b5050505050905090565b3360008181526007602090815260408083206001600160a01b038716808552925280832085905551919290917f8c5be1e5ebec7d5bd14f71427d1e84f3dd0314c0f7b2291e5b200ac8c7c3b9259061033b9086815260200190565b60405180910390a35060015b92915050565b6000336001600160a01b0385161461043f576001600160a01b03841660009081526007602090815260408083203384529091529020548211156103ce5760405162461bcd60e51b81526020600482015260146024820152734e6f7420656e6f75676820616c6c6f77616e636560601b60448201526064015b60405180910390fd5b6001600160a01b0384166000908152600660205260409020548211156104065760405162461bcd60e51b81526004016103c590610c0b565b6001600160a01b038416600090815260076020908152604080832033845290915281208054849290610439908490610c4d565b90915550505b61044a848484610842565b5060019392505050565b6005546000906001600160a01b031633146104815760405162461bcd60e51b81526004016103c590610c60565b6005546001600160a01b03166000908152600660205260409020548211156104bb5760405162461bcd60e51b81526004016103c590610c0b565b600a6003546104ca9190610c8f565b600454116104ea5760405162461bcd60e51b81526004016103c590610cb1565b81600360008282546104fc9190610c4d565b9250508190555081600460008282546105159190610c4d565b90915550506005546001600160a01b031660009081526006602052604081208054849290610544908490610c4d565b9091555060019150505b919050565b6005546000906001600160a01b031633146105805760405162461bcd60e51b81526004016103c590610c60565b6005546001600160a01b031633146105d05760405162461bcd60e51b815260206004820152601360248201527213db9b1e481bdddb995c8818d85b88199d5b99606a1b60448201526064016103c5565b81600354101561061c5760405162461bcd60e51b81526020600482015260176024820152764e6f7420656e6f75676820546f6b656e20737570706c7960481b60448201526064016103c5565b6001600160a01b03831633036106445760405162461bcd60e51b81526004016103c590610cb1565b60055461065b906001600160a01b03168484610842565b50600192915050565b60606001805461025d90610bd1565b6005546000906001600160a01b031633146106a05760405162461bcd60e51b81526004016103c590610c60565b81600360008282546106b29190610cd6565b9250508190555081600460008282546106cb9190610cd6565b90915550506005546001600160a01b031660009081526006602052604081208054849290610544908490610cd6565b600061065b338484610842565b6005546000906001600160a01b031633036107345760405162461bcd60e51b81526004016103c590610cb1565b8160045410156107805760405162461bcd60e51b81526020600482015260176024820152764e6f7420656e6f75676820546f6b656e20737570706c7960481b60448201526064016103c5565b610789826109ac565b6107ce5760405162461bcd60e51b8152602060048201526016602482015275139bdd08195b9bdd59da081d1a5b59481c185cdcd95960521b60448201526064016103c5565b6005546107e5906001600160a01b03163384610842565b506001919050565b33600090815260086020526040812054158061081757503360009081526008602052604090205442115b156108225750600090565b3360009081526008602052604090205461083d904290610c4d565b905090565b6001600160a01b0382166108985760405162461bcd60e51b815260206004820152601960248201527f496e76616c696420726563697069656e7420616464726573730000000000000060448201526064016103c5565b6001600160a01b0383166000908152600660205260409020548111156108d05760405162461bcd60e51b81526004016103c590610c0b565b6005546001600160a01b03908116908416036108fe5780600460008282546108f89190610c4d565b90915550505b6001600160a01b03831660009081526006602052604081208054839290610926908490610c4d565b90915550506001600160a01b03821660009081526006602052604081208054839290610953908490610cd6565b92505081905550816001600160a01b0316836001600160a01b03167fddf252ad1be2c89b69c2b068fc378daa952ba7f163c4a11628f55a4df523b3ef8360405161099f91815260200190565b60405180910390a3505050565b60004261138883116109ca576109c3603c82610cd6565b90506109fa565b620186a083116109e0576109c3610e1082610cd6565b620f424083116109fa576109f76201518082610cd6565b90505b336000908152600860205260409020541580610a2457503360009081526008602052604090205442115b610a695760405162461bcd60e51b8152602060048201526016602482015275139bdd08195b9bdd59da081d1a5b59481c185cdcd95960521b60448201526064016103c5565b600554610a80906001600160a01b03163385610842565b33600090815260086020526040902055506001919050565b600060208083528351808285015260005b81811015610ac557858101830151858201604001528201610aa9565b506000604082860101526040601f19601f8301168501019250505092915050565b80356001600160a01b038116811461054e57600080fd5b60008060408385031215610b1057600080fd5b610b1983610ae6565b946020939093013593505050565b600080600060608486031215610b3c57600080fd5b610b4584610ae6565b9250610b5360208501610ae6565b9150604084013590509250925092565b600060208284031215610b7557600080fd5b5035919050565b600060208284031215610b8e57600080fd5b610b9782610ae6565b9392505050565b60008060408385031215610bb157600080fd5b610bba83610ae6565b9150610bc860208401610ae6565b90509250929050565b600181811c90821680610be557607f821691505b602082108103610c0557634e487b7160e01b600052602260045260246000fd5b50919050565b6020808252601290820152714e6f7420656e6f7567682062616c616e636560701b604082015260600190565b634e487b7160e01b600052601160045260246000fd5b8181038181111561034757610347610c37565b6020808252601590820152744e6f7420656e6f7567682070726976696c6567657360581b604082015260600190565b600082610cac57634e487b7160e01b600052601260045260246000fd5b500490565b6020808252600b908201526a139bdd08185b1b1bddd95960aa1b604082015260600190565b8082018082111561034757610347610c3756fea264697066735822122075b77774c6916421cc4750690a01f353a8be8f149cbb8d1c7ba40ef779ffda7464736f6c63430008140033",
    "linkReferences": {}
  },
  "methodIdentifiers": {
    "allowance(address,address)": "dd62ed3e",
    "approve(address,uint256)": "095ea7b3",
    "availableSupply()": "7ecc2b56",
    "balanceOf(address)": "70a08231",
    "burn(uint256)": "42966c68",
    "deal(uint256)": "c959c42b",
    "decimals()": "313ce567",
    "fund(address,uint256)": "7b1837de",
    "mint(uint256)": "a0712d68",
    "name()": "06fdde03",
    "symbol()": "95d89b41",
    "timeToClaim()": "d7c31cd2",
    "totalSupply()": "18160ddd",
    "transfer(address,uint256)": "a9059cbb",
    "transferFrom(address,address,uint256)": "23b872dd"
  },
  "id": 1
}